{
  "transactions": [
    {
      "hash": "0x3f18a3b4dca88e5b37cb8f92ea2af89389e454caad9440c764b489fc65e49cbf",
      "transactionType": "CALL",
      "contractName": null,
      "contractAddress": "0xddc325b7b715e45f5ffa6f1bf5ed207e65f416a2",
      "function": "mint(uint256)",
      "arguments": [
        "2000000000000000000"
      ],
      "transaction": {
        "from": "0xf39fd6e51aad88f6f4ce6ab8827279cfffb92266",
        "to": "0xddc325b7b715e45f5ffa6f1bf5ed207e65f416a2",
        "gas": "0x110bc",
        "value": "0x0",
        "input": "0xa0712d680000000000000000000000000000000000000000000000001bc16d674ec80000",
        "nonce": "0x4",
        "chainId": "0x385"
      },
      "additionalContracts": [],
      "isFixedGasLimit": false
    }
  ],
  "receipts": [
    {
      "status": "0x1",
      "cumulativeGasUsed": "0xc575",
      "logs": [
        {
          "address": "0xddc325b7b715e45f5ffa6f1bf5ed207e65f416a2",
          "topics": [
            "0xddf252ad1be2c89b69c2b068fc378daa952ba7f163c4a11628f55a4df523b3ef",
            "0x0000000000000000000000000000000000000000000000000000000000000000",
            "0x000000000000000000000000f39fd6e51aad88f6f4ce6ab8827279cfffb92266"
          ],
          "data": "0x0000000000000000000000000000000000000000000000001bc16d674ec80000",
          "blockHash": "0xb1b8b10a721f9456c4c49d13d4a6a02512936f3f3778f048b6ea771c921d210b",
          "blockNumber": "0xdc5",
          "blockTimestamp": "0x6725cf55",
          "transactionHash": "0x3f18a3b4dca88e5b37cb8f92ea2af89389e454caad9440c764b489fc65e49cbf",
          "transactionIndex": "0x0",
          "logIndex": "0x0",
          "removed": false
        }
      ],
      "logsBloom": "0x00000000000000000000001000000000000000000000000000000000000000000000000000000000000000000000000000000000000000000000000000000000000000000000000000000008000000000000000000000000000000000000000000000000020000000000000100000800000000000000000000000010000000000000000000000000000000000000000000000000000000000000400000000000000000000000000000000000000000000000000000000000000000000000000000000002000000200000000000000000000000002000000400000000000020000000000000000000000000000000000000000000000000000000000000000000",
      "type": "0x2",
      "transactionHash": "0x3f18a3b4dca88e5b37cb8f92ea2af89389e454caad9440c764b489fc65e49cbf",
      "transactionIndex": "0x0",
      "blockHash": "0xb1b8b10a721f9456c4c49d13d4a6a02512936f3f3778f048b6ea771c921d210b",
      "blockNumber": "0xdc5",
      "gasUsed": "0xc575",
      "effectiveGasPrice": "0x8",
      "blobGasPrice": "0x1",
      "from": "0xf39fd6e51aad88f6f4ce6ab8827279cfffb92266",
      "to": "0xddc325b7b715e45f5ffa6f1bf5ed207e65f416a2",
      "contractAddress": null
    }
  ],
  "libraries": [],
  "pending": [],
  "returns": {},
  "timestamp": 1730531157,
  "chain": 901,
  "commit": "669be5e"
}