{
  "transactions": [
    {
      "hash": "0x921aa75077a0e819172300a9ffaa93a9e7a98d34d9cc79fc32ccfbce5b7f2607",
      "transactionType": "CALL",
      "contractName": null,
      "contractAddress": "0x4200000000000000000000000000000000000028",
      "function": "sendERC20(address,address,uint256,uint256)",
      "arguments": [
        "0xdDC325B7b715e45f5fFA6F1BF5ED207e65F416A2",
        "0xf39Fd6e51aad88F6F4ce6aB8827279cffFb92266",
        "1000000000000000000",
        "902"
      ],
      "transaction": {
        "from": "0xf39fd6e51aad88f6f4ce6ab8827279cfffb92266",
        "to": "0x4200000000000000000000000000000000000028",
        "gas": "0x17a41",
        "value": "0x0",
        "input": "0xc1a433d8000000000000000000000000ddc325b7b715e45f5ffa6f1bf5ed207e65f416a2000000000000000000000000f39fd6e51aad88f6f4ce6ab8827279cfffb922660000000000000000000000000000000000000000000000000de0b6b3a76400000000000000000000000000000000000000000000000000000000000000000386",
        "nonce": "0x5",
        "chainId": "0x385"
      },
      "additionalContracts": [],
      "isFixedGasLimit": false
    }
  ],
  "receipts": [
    {
      "status": "0x1",
      "cumulativeGasUsed": "0x102a3",
      "logs": [
        {
          "address": "0xddc325b7b715e45f5ffa6f1bf5ed207e65f416a2",
          "topics": [
            "0xddf252ad1be2c89b69c2b068fc378daa952ba7f163c4a11628f55a4df523b3ef",
            "0x000000000000000000000000f39fd6e51aad88f6f4ce6ab8827279cfffb92266",
            "0x0000000000000000000000000000000000000000000000000000000000000000"
          ],
          "data": "0x0000000000000000000000000000000000000000000000000de0b6b3a7640000",
          "blockHash": "0xbd153bd8f58f0e89ab159a9bda62a2172a5912bf7ff984264f9b1fdf232482e4",
          "blockNumber": "0xe5c",
          "blockTimestamp": "0x6725d083",
          "transactionHash": "0x921aa75077a0e819172300a9ffaa93a9e7a98d34d9cc79fc32ccfbce5b7f2607",
          "transactionIndex": "0x0",
          "logIndex": "0x0",
          "removed": false
        },
        {
          "address": "0xddc325b7b715e45f5ffa6f1bf5ed207e65f416a2",
          "topics": [
            "0x017c33ab728c93e2be949ec7e4a35b76d607957c5fac4253f5d623b4a3b13036",
            "0x000000000000000000000000f39fd6e51aad88f6f4ce6ab8827279cfffb92266"
          ],
          "data": "0x0000000000000000000000000000000000000000000000000de0b6b3a7640000",
          "blockHash": "0xbd153bd8f58f0e89ab159a9bda62a2172a5912bf7ff984264f9b1fdf232482e4",
          "blockNumber": "0xe5c",
          "blockTimestamp": "0x6725d083",
          "transactionHash": "0x921aa75077a0e819172300a9ffaa93a9e7a98d34d9cc79fc32ccfbce5b7f2607",
          "transactionIndex": "0x0",
          "logIndex": "0x1",
          "removed": false
        },
        {
          "address": "0x4200000000000000000000000000000000000023",
          "topics": [
            "0x382409ac69001e11931a28435afef442cbfd20d9891907e8fa373ba7d351f320",
            "0x0000000000000000000000000000000000000000000000000000000000000386",
            "0x0000000000000000000000004200000000000000000000000000000000000028",
            "0x0000000000000000000000000000000000000000000000000000000000000001"
          ],
          "data": "0x0000000000000000000000004200000000000000000000000000000000000028000000000000000000000000000000000000000000000000000000000000004000000000000000000000000000000000000000000000000000000000000000847cfd6dbc000000000000000000000000ddc325b7b715e45f5ffa6f1bf5ed207e65f416a2000000000000000000000000f39fd6e51aad88f6f4ce6ab8827279cfffb92266000000000000000000000000f39fd6e51aad88f6f4ce6ab8827279cfffb922660000000000000000000000000000000000000000000000000de0b6b3a764000000000000000000000000000000000000000000000000000000000000",
          "blockHash": "0xbd153bd8f58f0e89ab159a9bda62a2172a5912bf7ff984264f9b1fdf232482e4",
          "blockNumber": "0xe5c",
          "blockTimestamp": "0x6725d083",
          "transactionHash": "0x921aa75077a0e819172300a9ffaa93a9e7a98d34d9cc79fc32ccfbce5b7f2607",
          "transactionIndex": "0x0",
          "logIndex": "0x2",
          "removed": false
        },
        {
          "address": "0x4200000000000000000000000000000000000028",
          "topics": [
            "0x0247bfe63a1aaa59e073e20b172889babfda8d3273b5798e0e9ac4388e6dd11c",
            "0x000000000000000000000000ddc325b7b715e45f5ffa6f1bf5ed207e65f416a2",
            "0x000000000000000000000000f39fd6e51aad88f6f4ce6ab8827279cfffb92266",
            "0x000000000000000000000000f39fd6e51aad88f6f4ce6ab8827279cfffb92266"
          ],
          "data": "0x0000000000000000000000000000000000000000000000000de0b6b3a76400000000000000000000000000000000000000000000000000000000000000000386",
          "blockHash": "0xbd153bd8f58f0e89ab159a9bda62a2172a5912bf7ff984264f9b1fdf232482e4",
          "blockNumber": "0xe5c",
          "blockTimestamp": "0x6725d083",
          "transactionHash": "0x921aa75077a0e819172300a9ffaa93a9e7a98d34d9cc79fc32ccfbce5b7f2607",
          "transactionIndex": "0x0",
          "logIndex": "0x3",
          "removed": false
        }
      ],
      "logsBloom": "0x20400000000000020000001000000000000000000000000000000000000200200000000000000000000000000000000000000000000000000008000000040000000000000000000002000008000000000000000000040104000000000000000000003000020000000040000100000800000000000000080000000010000000000000000000000000000000000000000000000000000000000000410000000000040000000000000000000000000000000000010000000000000000810000000800000002000008200000000000000000000000102000000410000000000060000000000000080000000000000000000000000000000000000000000000000000",
      "type": "0x2",
      "transactionHash": "0x921aa75077a0e819172300a9ffaa93a9e7a98d34d9cc79fc32ccfbce5b7f2607",
      "transactionIndex": "0x0",
      "blockHash": "0xbd153bd8f58f0e89ab159a9bda62a2172a5912bf7ff984264f9b1fdf232482e4",
      "blockNumber": "0xe5c",
      "gasUsed": "0x102a3",
      "effectiveGasPrice": "0x8",
      "blobGasPrice": "0x1",
      "from": "0xf39fd6e51aad88f6f4ce6ab8827279cfffb92266",
      "to": "0x4200000000000000000000000000000000000028",
      "contractAddress": null
    }
  ],
  "libraries": [],
  "pending": [],
  "returns": {},
  "timestamp": 1730531459,
  "chain": 901,
  "commit": "669be5e"
}