{
  "transactions": [
    {
      "hash": "0xc118d4a4f73721bfa03fac5e31ba22a6637110fd0b26585972b5debeee9c4088",
      "transactionType": "CALL",
      "contractName": null,
      "contractAddress": "0x4200000000000000000000000000000000000028",
      "function": "sendERC20(address,address,uint256,uint256)",
      "arguments": [
        "0x4200000000000000000000000000000000000024",
        "0xf39Fd6e51aad88F6F4ce6aB8827279cffFb92266",
        "2000000000000000000",
        "901"
      ],
      "transaction": {
        "from": "0xf39fd6e51aad88f6f4ce6ab8827279cfffb92266",
        "to": "0x4200000000000000000000000000000000000028",
        "gas": "0x23e0f",
        "value": "0x0",
        "input": "0xc1a433d80000000000000000000000004200000000000000000000000000000000000024000000000000000000000000f39fd6e51aad88f6f4ce6ab8827279cfffb922660000000000000000000000000000000000000000000000001bc16d674ec800000000000000000000000000000000000000000000000000000000000000000385",
        "nonce": "0x0",
        "chainId": "0x386"
      },
      "additionalContracts": [],
      "isFixedGasLimit": false
    }
  ],
  "receipts": [
    {
      "status": "0x1",
      "cumulativeGasUsed": "0x19f9d",
      "logs": [
        {
          "address": "0x4200000000000000000000000000000000000024",
          "topics": [
            "0xddf252ad1be2c89b69c2b068fc378daa952ba7f163c4a11628f55a4df523b3ef",
            "0x000000000000000000000000f39fd6e51aad88f6f4ce6ab8827279cfffb92266",
            "0x0000000000000000000000000000000000000000000000000000000000000000"
          ],
          "data": "0x0000000000000000000000000000000000000000000000001bc16d674ec80000",
          "blockHash": "0x69ccad4eb0ce4fac1715607fc51e446709d3d840006429e6830f8d5436d7e879",
          "blockNumber": "0x16b6",
          "blockTimestamp": "0x672516cd",
          "transactionHash": "0xc118d4a4f73721bfa03fac5e31ba22a6637110fd0b26585972b5debeee9c4088",
          "transactionIndex": "0x0",
          "logIndex": "0x0",
          "removed": false
        },
        {
          "address": "0x4200000000000000000000000000000000000025",
          "topics": [
            "0x875e07afd7ce17c6531b1a6b7b34829dcd8b7e6639448afbd6a8e29fa1422b82",
            "0x0000000000000000000000004200000000000000000000000000000000000024"
          ],
          "data": "0x0000000000000000000000000000000000000000000000001bc16d674ec80000",
          "blockHash": "0x69ccad4eb0ce4fac1715607fc51e446709d3d840006429e6830f8d5436d7e879",
          "blockNumber": "0x16b6",
          "blockTimestamp": "0x672516cd",
          "transactionHash": "0xc118d4a4f73721bfa03fac5e31ba22a6637110fd0b26585972b5debeee9c4088",
          "transactionIndex": "0x0",
          "logIndex": "0x1",
          "removed": false
        },
        {
          "address": "0x4200000000000000000000000000000000000024",
          "topics": [
            "0x017c33ab728c93e2be949ec7e4a35b76d607957c5fac4253f5d623b4a3b13036",
            "0x000000000000000000000000f39fd6e51aad88f6f4ce6ab8827279cfffb92266"
          ],
          "data": "0x0000000000000000000000000000000000000000000000001bc16d674ec80000",
          "blockHash": "0x69ccad4eb0ce4fac1715607fc51e446709d3d840006429e6830f8d5436d7e879",
          "blockNumber": "0x16b6",
          "blockTimestamp": "0x672516cd",
          "transactionHash": "0xc118d4a4f73721bfa03fac5e31ba22a6637110fd0b26585972b5debeee9c4088",
          "transactionIndex": "0x0",
          "logIndex": "0x2",
          "removed": false
        },
        {
          "address": "0x4200000000000000000000000000000000000023",
          "topics": [
            "0x382409ac69001e11931a28435afef442cbfd20d9891907e8fa373ba7d351f320",
            "0x0000000000000000000000000000000000000000000000000000000000000385",
            "0x0000000000000000000000004200000000000000000000000000000000000028",
            "0x0000000000000000000000000000000000000000000000000000000000000000"
          ],
          "data": "0x0000000000000000000000004200000000000000000000000000000000000028000000000000000000000000000000000000000000000000000000000000004000000000000000000000000000000000000000000000000000000000000000847cfd6dbc0000000000000000000000004200000000000000000000000000000000000024000000000000000000000000f39fd6e51aad88f6f4ce6ab8827279cfffb92266000000000000000000000000f39fd6e51aad88f6f4ce6ab8827279cfffb922660000000000000000000000000000000000000000000000001bc16d674ec8000000000000000000000000000000000000000000000000000000000000",
          "blockHash": "0x69ccad4eb0ce4fac1715607fc51e446709d3d840006429e6830f8d5436d7e879",
          "blockNumber": "0x16b6",
          "blockTimestamp": "0x672516cd",
          "transactionHash": "0xc118d4a4f73721bfa03fac5e31ba22a6637110fd0b26585972b5debeee9c4088",
          "transactionIndex": "0x0",
          "logIndex": "0x3",
          "removed": false
        },
        {
          "address": "0x4200000000000000000000000000000000000028",
          "topics": [
            "0x0247bfe63a1aaa59e073e20b172889babfda8d3273b5798e0e9ac4388e6dd11c",
            "0x0000000000000000000000004200000000000000000000000000000000000024",
            "0x000000000000000000000000f39fd6e51aad88f6f4ce6ab8827279cfffb92266",
            "0x000000000000000000000000f39fd6e51aad88f6f4ce6ab8827279cfffb92266"
          ],
          "data": "0x0000000000000000000000000000000000000000000000001bc16d674ec800000000000000000000000000000000000000000000000000000000000000000385",
          "blockHash": "0x69ccad4eb0ce4fac1715607fc51e446709d3d840006429e6830f8d5436d7e879",
          "blockNumber": "0x16b6",
          "blockTimestamp": "0x672516cd",
          "transactionHash": "0xc118d4a4f73721bfa03fac5e31ba22a6637110fd0b26585972b5debeee9c4088",
          "transactionIndex": "0x0",
          "logIndex": "0x4",
          "removed": false
        }
      ],
      "logsBloom": "0x20408000000000000000000000000000000000000000000000000000000200a00000000000000000000000000000000000000000000040008008000000000000000000000000000002000008000000000000000000000104000000000000000000002208020000000000000100000800000000002000080001000010000000100000000000000000020000000004000000000000000000000000010000000000040000000000000000000000000000000000010000000000000000010000000800000002000008200000000000000000000000002000000010000000000020020000008000080000000000001800000000000000000000000000000000000000",
      "type": "0x2",
      "transactionHash": "0xc118d4a4f73721bfa03fac5e31ba22a6637110fd0b26585972b5debeee9c4088",
      "transactionIndex": "0x0",
      "blockHash": "0x69ccad4eb0ce4fac1715607fc51e446709d3d840006429e6830f8d5436d7e879",
      "blockNumber": "0x16b6",
      "gasUsed": "0x19f9d",
      "effectiveGasPrice": "0x8",
      "blobGasPrice": "0x1",
      "from": "0xf39fd6e51aad88f6f4ce6ab8827279cfffb92266",
      "to": "0x4200000000000000000000000000000000000028",
      "contractAddress": null
    }
  ],
  "libraries": [],
  "pending": [],
  "returns": {},
  "timestamp": 1730483917,
  "chain": 902,
  "commit": "669be5e"
}